:100000000C9463010C948B010C948B010C946D097E
:100010000C946D090C946D090C948B010C948B015C
:100020000C948B010C948B010C948B010C948B0120
:100030000C948B010C948B010C948B010C948B0110
:100040000C9423090C948B010C948B010C948B0160
:100050000C948B010C948B010C948B010C948B01F0
:100060000C94E5090C948B0152096AD53036A538F9
:10007000BF40A39E81F3D7FB7CE339829B2FFF8790
:10008000348E4344C4DEE9CB547B9432A6C2233D74
:10009000EE4C950B42FAC34E082EA16628D924B225
:1000A000765BA2496D8BD12572F8F6648668981646
:1000B000D4A45CCC5D65B6926C704850FDEDB9DAA5
:1000C0005E154657A78D9D8490D8AB008CBCD30A93
:1000D000F7E45805B8B34506D02C1E8FCA3F0F026F
:1000E000C1AFBD0301138A6B3A9111414F67DCEA3E
:1000F00097F2CFCEF0B4E67396AC7422E7AD3585B7
:10010000E2F937E81C75DF6E47F11A711D29C589C0
:100110006FB7620EAA18BE1BFC563E4BC6D27920A2
:100120009ADBC0FE78CD5AF41FDDA8338807C731AB
:10013000B11210592780EC5F60517FA919B54A0DA3
:100140002DE57A9F93C99CEFA0E03B4DAE2AF5B018
:10015000C8EBBB3C83539961172B047EBA77D62634
:10016000E169146355210C7D637C777BF26B6FC56D
:100170003001672BFED7AB76CA82C97DFA5947F0AA
:10018000ADD4A2AF9CA472C0B7FD9326363FF7CC86
:1001900034A5E5F171D8311504C723C31896059A23
:1001A000071280E2EB27B27509832C1A1B6E5AA046
:1001B000523BD6B329E32F8453D100ED20FCB15B31
:1001C0006ACBBE394A4C58CFD0EFAAFB434D33859A
:1001D00045F9027F503C9FA851A3408F929D38F56E
:1001E000BCB6DA2110FFF3D2CD0C13EC5F974417A5
:1001F000C4A77E3D645D197360814FDC222A90881C
:1002000046EEB814DE5E0BDBE0323A0A4906245CA7
:10021000C2D3AC629195E479E7C8376D8DD54EA90C
:100220006C56F4EA657AAE08BA78252E1CA6B4C6D8
:10023000E8DD741F4BBD8B8A703EB5664803F60E31
:10024000613557B986C11D9EE1F8981169D98E9420
:100250009B1E87E9CE5528DF8CA1890DBFE6426839
:1002600041992D0FB054BB16000000002400270058
:100270002A0000000008000201000003040700003B
:1002800000000000000000000000230026002900FC
:1002900000000000250028002B00040404040404CE
:1002A0000404020202020202030303030303010225
:1002B00004081020408001020408102001020408F4
:1002C0001020040BB11411241FBECFEFD8E0DEBF05
:1002D000CDBF12E0A0E0B1E0EEEBF0E302C005908C
:1002E0000D92A038B107D9F725E0A0E8B2E001C02F
:1002F0001D92A339B207E1F711E0C2E6D1E004C0D4
:100300002197FE010E943716C136D107C9F70E9416
:10031000450C0C9452180C940000DB01FC01242FB6
:100320003C91308311963C911197318312963C9108
:100330001297328313963C9113973383245014966B
:100340003496243068F72CEF240F2695269530E05C
:100350002F5F3F4F220F331F220F331F4370DB01EC
:10036000A20FB31FFC01E20FF31F415018F08D9153
:100370008193FBCF0895809162059091630582304F
:10038000910538F0880F991F880F991F05970197DD
:10039000F1F7089596E0899FD0011124A051BB4F39
:1003A00090967C936E935F9791E091969C93919732
:1003B000E0915D05F0915E0590915C05992339F01F
:1003C000309751F0811108C080910C050994309745
:1003D00019F05C968C91FACF0895833081F028F45F
:1003E000813099F08230A9F008958730A9F08830E3
:1003F000C9F08430B1F4809180008F7D03C080917A
:1004000080008F7780938000089584B58F7784BDB6
:10041000089584B58F7DFBCF8091B0008F77809356
:10042000B00008958091B0008F7DF9CFCF93DF9316
:10043000282F30E0F901EE58FD4F8491F901E25583
:10044000FD4FD491F901E656FD4FC491CC23A1F0A4
:1004500081110E94ED01EC2FF0E0EE0FFF1FEA5733
:10046000FD4FA591B491EC91ED2381E090E009F46A
:1004700080E0DF91CF91089580E090E0FACF1F9364
:10048000CF93DF93282F30E0F901EE58FD4F849190
:10049000F901E255FD4FD491F901E656FD4FC491A3
:1004A000CC23A9F0162F81110E94ED01EC2FF0E072
:1004B000EE0FFF1FE057FD4FA591B4918FB7F89451
:1004C000EC91111108C0D095DE23DC938FBFDF9132
:1004D000CF911F910895DE2BF8CFCF93DF9390E05B
:1004E000FC01E255FD4F249186569D4FFC018491FD
:1004F0008823C9F090E0880F991FFC01E859FD4F4F
:10050000A591B491FC01E057FD4FC591D4916111C3
:100510000DC09FB7F8948C91209582238C9388818D
:10052000282328839FBFDF91CF910895623051F433
:100530009FB7F8943C91822F809583238C93E88118
:100540002E2BEFCF8FB7F894EC912E2B2C938FBFDF
:10055000EACFCF93DF93CFE5D5E061E089810E94B8
:100560006D020E94BB0160E088810E946D020E94C2
:10057000BB0160E089810E946D02DF91CF910C94F4
:10058000BB010F931F93CF93DF93D82FC8E061E097
:1005900080915F050E946D020E94BB010D2F10E04B
:1005A00060E0D0FF61E0809160050E946D020E94D2
:1005B000BB0160E080915F050E946D020E94BB015B
:1005C00015950795D02FC15011F761E080915F0517
:1005D0000E946D0260E0809160050E946D020E94A1
:1005E000BB0160E080915F050E946D020E94BB012B
:1005F000809160050E941602C82F811105C061E03C
:10060000809160050E946D020E94BB0161E08091B3
:100610005F050E946D020E94BB0181E0C11101C013
:1006200080E0DF91CF911F910F91089561E080915B
:1006300060050E946D020C94BB01EF92FF920F9334
:100640001F93CF93DF93182FE92E062FC42F0E94FC
:10065000160380E40E94C1020E94A9020E941603B0
:1006600080EC8C0F0E94C102F12EC12FDE2D8991EA
:100670000E94C1028C2F8F198017C8F30E94A90213
:100680000E941603809161058F7080580E94C102FC
:10069000DF91CF911F910F91FF90EF900C94A902E1
:1006A000EF92FF920F931F93CF93DF9300D000D070
:1006B000CDB7DEB77B0130E087FF02C0819531E026
:1006C000E82F880FFF0BC701BF010E940F168B0197
:1006D000DC01A157BE4F9C919A83811107C0EF287E
:1006E00029F4332319F080E48A8330E0C801BF0184
:1006F0000E940F16FC01E157FE4F908199838111F2
:1007000006C0012B21F4332311F080E489834423B4
:1007100081F0FE013196BE016B5F7F4F9191DF0149
:100720001197842F8078892B8C93440F6E177F0745
:10073000A9F7422F62E0CE0101960E941D030F909F
:100740000F900F900F90DF91CF911F910F91FF901D
:10075000EF9008953FB7F8948091840390918503BA
:10076000A0918603B091870326B5A89B05C02F3FB3
:1007700019F00196A11DB11D3FBFBA2FA92F982FC7
:100780008827BC01CD01620F711D811D911D42E0C2
:10079000660F771F881F991F4A95D1F708958F928A
:1007A0009F92AF92BF92CF92DF92EF92FF926B0136
:1007B0007C010E94AA034B015C01C114D104E10435
:1007C000F104B9F00E94AA03681979098A099B0902
:1007D000683E73408105910580F321E0C21AD1087B
:1007E000E108F10888EE880E83E0981EA11CB11C78
:1007F000E4CFFF90EF90DF90CF90BF90AF909F90AD
:100800008F9008952FB7F8946091800370918103C1
:1008100080918203909183032FBF08950F931F93BC
:10082000CF93DF93C82FD62F86E0C89FF001112405
:10083000E051FB4F11A2878D90A181309105F1F01D
:1008400058F082309105F1F1039709F440C0DF912F
:10085000CF911F910F9108956623C9F361E070E075
:100860008C2F0E94CA010E94020460934805709375
:10087000490580934A0590934B05E9CF0E940204F5
:10088000009148051091490520914A0530914B058A
:10089000AB01BC01401B510B620B730B80915A05DD
:1008A00090915B05B0E0A0E084179507A607B70715
:1008B00048F462E070E08C2FDF91CF911F910F918F
:1008C0000C94CA0163E070E0D111C1CFF4CF70E0A5
:1008D00060E0F1CF862F642F0C946D02862F642F79
:1008E0000C943F02862F0C94160208950895AF923F
:1008F000BF92CF92DF92EF92FF920F931F93CF930D
:10090000DF936C017B018B01040F151FEB015E016E
:10091000AE18BF08C017D10759F06991D601ED9103
:10092000FC910190F081E02DC6010995892B79F7A2
:10093000C501DF91CF911F910F91FF90EF90DF9054
:10094000CF90BF90AF900895CF93DF93FC01EB0160
:10095000DA019C01205F3F4F88819C918927808329
:10096000898111969C911197892781838A8112969A
:100970009C911297892782838B8113969C91139760
:1009800089278383349624961496E217F30721F778
:10099000DF91CF91089520912C0330912D032817DA
:1009A000390771F490912A0380912B03981741F035
:1009B000E0912A03F0E0EC51FD4F808190E0089532
:1009C0008FEF9FEF08950895EF92FF920F931F937B
:1009D000CF93DF93DC015C96ED90FC905D97E11482
:1009E000F10479F481E090E013969C938E93129732
:1009F00090E080E0DF91CF911F910F91FF90EF90F9
:100A000008955196ED91FC91529750968C91509784
:100A1000982F90950FB75E962C915E97122F1270BB
:100A200021FD6095F8942081112319F1282B208352
:100A3000E7012197F1F728E0462F50E0308160FF71
:100A40001AC0382B3083E7012197F1F7BA01759569
:100A50006795215089F7112381F080818923808354
:100A60000FBF5C968D919C910197F1F781E090E02A
:100A7000C1CF2923DCCF3923E5CF9081892BEFCF5C
:100A800020912C0330912D032817390761F48091B0
:100A90002B0320912A0390E0805C9F4F821B9109D9
:100AA0008F739927089590E080E0089520912C039A
:100AB00030912D0328173907B9F490912A038091BA
:100AC0002B03981789F0E0912A03F0E0EC51FD4FD9
:100AD000808120912A0330E02F5F3F4F2F7333270F
:100AE00020932A0390E008958FEF9FEF08952091BF
:100AF000C102260F3327331F21323105ECF4209138
:100B0000AE03FC0190E080E0243069F082E00895BB
:100B1000A091C1022191AC014F555D4FA40FB52F9B
:100B2000B11D2C930196861798F38091C102680F2E
:100B30006093C10280E0089581E008951092AE03B1
:100B400081E08093AD031092880361E082E10E940E
:100B50003F0261E083E10E943F02E9EBF0E0808127
:100B60008E7F808380818D7F808388E48093B8002E
:100B700085E48093BC000895CF93DF9391E0909338
:100B8000A0028823B9F0C091B800D091BA0080913A
:100B9000BC008A7B8093BC0060E082E10E943F023F
:100BA00060E083E10E943F020E949E05D093BA005C
:100BB000C093B800DF91CF910895CF92DF92EF926A
:100BC000FF920F931F93CF93DF93D091D70381E0D0
:100BD000D13208F09CC0C091D6030E94AA036B01D9
:100BE0007C018091AE0381116CC082E08093AE03E2
:100BF00081E08093AD038FEF8093AC031092AB0341
:100C0000D093AA03A6EBB3E0EAE8F3E080E0D813C0
:100C10008DC01092890380918903CC0FC82BC0939B
:100C2000890380918803813009F084C01092880381
:100C30000E94AA036B017C01809189038093BB0011
:100C40008091B0039091B103A091B203B091B3032E
:100C5000892B8A2B8B2BA1F00E94AA030091B00351
:100C60001091B1032091B2033091B3036C197D0947
:100C70008E099F09061717072807390708F442C08D
:100C80008091BC0083FDD8CF85EC8093BC000E948E
:100C9000AA036B017C018091AE03823009F44CC041
:100CA0008091AC038F3F09F469C08091AC0380321E
:100CB00009F466C08091AC03803309F463C084E01A
:100CC00026C08091B0039091B103A091B203B0917E
:100CD000B303892B8A2B8B2B09F483CF0E94AA03A1
:100CE0000091B0031091B1032091B2033091B3038E
:100CF0006C197D098E099F09061717072807390700
:100D000008F06FCF8091AF030E94BC0585E0109280
:100D1000B5031092D7031092B403DF91CF911F91C6
:100D20000F91FF90EF90DF90CF9008959D91919358
:100D30008F5F6DCF85EEA9CF8091B0039091B10305
:100D4000A091B203B091B303892B8A2B8B2B09F4AA
:100D5000A2CF0E94AA030091B0031091B103209189
:100D6000B2033091B3036C197D098E099F090617F0
:100D700017072807390708F08ECFC4CF80E0C7CF08
:100D800082E0C5CF83E0C3CFE0912903809128039F
:100D9000E81730F4F0E0E058FD4F808190E00895CE
:100DA0008FEF9FEF089590912903809128032FEFF3
:100DB0003FEF981748F4E92FF0E0E058FD4F20810D
:100DC00030E09F5F90932903C90108958091280323
:100DD00090912903891B990B0895CF92DF92EF928E
:100DE000FF920F931F93CF93DF937C01CB018A0176
:100DF0002091B403222389F0EB016B01C40ED51EB0
:100E0000CC15DD0569F06991D701ED91FC91019058
:100E1000F081E02DC7010995F3CF642F0E9477057B
:100E2000C801DF91CF911F910F91FF90EF90DF905C
:100E3000CF900895CF93DF931F92CDB7DEB769832C
:100E40002091B4032223F9F02091D703203258F0E7
:100E500021E030E0FC013383228390E080E00F90BA
:100E6000DF91CF9108958091B503E82FF0E0EA5427
:100E7000FC4F998190838F5F8093B5038093D70354
:100E800081E090E0ECCF61E0CE0101960E94770511
:100E9000F7CFFC01248131E03093B4032093D603D3
:100EA0001092B5031092D7038385682B88ED93E0E9
:100EB0000E941A070C94DD05089590E080E00895E3
:100EC000FB01280F391FDC015D91CD01542751939F
:100ED000A217B307C1F708950F931F93CF938C0107
:100EE000C62F0E9449076C2F6460C8010E94490701
:100EF0006C2F6B7FC8010E94490783EC90E001973B
:100F0000F1F7CF911F910F9108950F931F93CF93F6
:100F1000DF938C01D62FC42F607F642B0E946C0757
:100F200080E1D89FB00111246C2BC801DF91CF91D3
:100F30001F910F910C946C0740E0682F84E695E0B8
:100F40000C948507CF93DF93CDB7DEB728970FB604
:100F5000F894DEBF0FBECDBF98E0E2E2F1E0DE0123
:100F6000119601900D929A95E1F790916C05961764
:100F700010F46FEF690F70E0660F771F21E030E02B
:100F80002C0F3D1F620F731FFB019081890F80683A
:100F900028960FB6F894DEBF0FBECDBFDF91CF917C
:100FA0000C949C0781E00E949C078BE39FE10197D2
:100FB000F1F70895E4E6F5E08681982F9260968334
:100FC0008A600C949C0741E00E94850781E090E0D4
:100FD0000895FB0101900020E9F73197AF01461B0E
:100FE000570BDC01ED91FC910280F381E02D099417
:100FF0000E94D20760E080E00E94A20769ED71E0E4
:1010000084E695E00E94E90761E080E00E94A20783
:101010006AEE71E084E695E00E94E9076CED75E008
:1010200080E090E00E94CF030E94D20760E080E061
:101030000E94A2076AEF71E084E695E00E94E9074A
:1010400080913303909134034E96909334038093B0
:10105000330368EE73E080E090E00E94CF030C94CD
:10106000D2070F931F93CF93DF93EC01888199816F
:10107000009759F02A813B812617370730F081E02D
:10108000DF91CF911F910F9108958B016F5F7F4F7B
:101090000E946217009759F0998388831B830A8303
:1010A0002C813D81232B59F7FC011082E8CF80E091
:1010B000E7CFEF92FF920F931F93CF93DF936115CA
:1010C000710541F480E0DF91CF911F910F91FF9066
:1010D000EF90089541155105B1F07B01EC010C81B1
:1010E0001D81040F151FB8010E943108882351F398
:1010F000288139818C819D81B701820F931F0E94C5
:1011000031181D830C8381E0DECFCF93DF93EC0198
:1011100088819981009711F00E94D916198218824E
:101120001D821C821B821A82DF91CF910895EF925B
:10113000FF920F931F93CF93DF93EC017B018A0102
:10114000BA010E94310881110BC0CE010E948508AE
:10115000CE01DF91CF911F910F91FF90EF900895F5
:101160001D830C83B701888199810E943118F0CFCB
:10117000FB0101900020E9F73197AF01461B570BA7
:101180000C949708FB0101900020E9F73197AF011B
:10119000461B570B0C949708CF93DF93EC01FB0190
:1011A0008617970749F0608171816115710541F0DB
:1011B000448155810E949708CE01DF91CF91089517
:1011C0000E948508F9CFFC0180819181009711F080
:1011D0000C94D916089585ED8093BC008091B003DE
:1011E0009091B103A091B203B091B3030796A11DF2
:1011F000B11D23E0B695A795979587952A95D1F7C8
:101200002091BC0024FD03C01092AE0308954091CC
:10121000B0035091B1036091B2037091B303452BB9
:10122000462B472B69F30097A105B10541F02AE24F
:101230002A95F1F700C00197A109B109E1CF80918A
:10124000AF030C94BC051F920F920FB60F9211249E
:101250002F933F938F939F93AF93BF93809180037E
:1012600090918103A0918203B091830330917F0319
:1012700023E0230F2D3758F50196A11DB11D2093B2
:101280007F038093800390938103A0938203B093A4
:1012900083038091840390918503A0918603B0918C
:1012A00087030196A11DB11D80938403909385034C
:1012B000A0938603B0938703BF91AF919F918F91C5
:1012C0003F912F910F900FBE0F901F90189526E819
:1012D000230F0296A11DB11DD2CF1F920F920FB600
:1012E0000F9211242F933F934F935F936F937F93AC
:1012F0008F939F93AF93BF93EF93FF93E0912C0352
:10130000F0912D03309749F0A685B7858585968D98
:1013100091FF14C09C918923A1F4FF91EF91BF919B
:10132000AF919F918F917F916F915F914F913F917D
:101330002F910F900FBE0F901F9018959C918923AD
:1013400061F7A389B4899C918589809589238C93C1
:10135000868997890197F1F7608D718DA685B7858C
:10136000558538E020E0CB010197F1F7822F90E01E
:1013700095958795282F4C91452309F02068315089
:1013800091F7868D81FD209580912B0390E0019649
:101390008F73992730912A03381799F0A0912B0366
:1013A000B0E0AC51BD4F2C9380932B03828D938D75
:1013B0000197F1F7A389B4898C919589892B8C9336
:1013C000ACCF868D8160868FF1CF1F920F920FB6C2
:1013D0000F9211242F933F934F935F936F937F93BB
:1013E0008F939F93AF93BF93EF93FF938091B90037
:1013F000887F803609F44AC0F0F5883209F4A7C026
:1014000018F5803109F49BC0B8F4882309F4F9C0B9
:10141000883009F494C0FF91EF91BF91AF919F91F3
:101420008F917F916F915F914F913F912F910F908D
:101430000FBE0F901F901895883109F488C0803234
:1014400051F78093AC0314C0803409F49DC040F47C
:101450008033B9F38833F9F68093AC0385ECB0C0E0
:10146000803509F485C0883509F496C0883499F62A
:101470000E94EB08D0CF883909F48CC038F5883742
:1014800029F050F4883611F0803729F683E08093F4
:10149000AE031092E30257C0883809F47BC080394C
:1014A00019F0803809F0B7CF8091E302803208F05C
:1014B00071C0E091E30281E08E0F8093E30280919E
:1014C000BB00F0E0ED53FD4F80833DC0803B39F021
:1014D000E0F4803A09F479C0883A09F09CCF84E0BE
:1014E0008093AE031092C2021092C102E0912603D3
:1014F000F091270309958091C10281110FC081E00D
:101500008093C1021092A10209C0803C09F4A6CFC9
:10151000883C09F4A3CF883B09F07DCFE091C2025B
:1015200081E08E0F8093C202F0E0EF55FD4F808185
:101530008093BB009091C2028091C10229C080912A
:1015400089038093BB0085EC8093BC0064CF9091AD
:10155000AB038091AA03981758F5E091AB0381E0A3
:101560008E0F8093AB03F0E0E657FC4F8081E9CF0C
:10157000E091AB0381E08E0F8093AB038091BB00C1
:10158000F0E0E657FC4F80839091AB038091AA0373
:101590009817C8F285E8D8CFE091AB0381E08E0FB1
:1015A0008093AB038091BB00F0E0E657FC4F808353
:1015B0008091AD0381115CCF81E08093880384EA40
:1015C0008093BC001092AE0326CF85EC8093BC00C4
:1015D0001092AE038091E302803230F4E091E30296
:1015E000F0E0ED53FD4F10826091E30270E0E09176
:1015F0002403F091250383EC92E009951092E30215
:101600000ACF1092AC0334CF1092DB031092DA03AE
:1016100088EE93E0A0E0B0E08093DC039093DD03DC
:10162000A093DE03B093DF0323EA31E03093D903C4
:101630002093D8031092730510927205809374055D
:1016400090937505A0937605B09377058BEC91E0A8
:10165000909371058093700510928705109286050E
:10166000109289051092880510928B0510928A05B8
:1016700010928D0510928C0560918E056E7F6D7FA6
:1016800060938E056695617081E068278CE00E940A
:101690003F0261E08CE00E946D02EAEBF2E0E4912F
:1016A000E0938005E6EAF2E0E491F0E0EE0FFF1F40
:1016B000E057FD4F85919491909382058093810529
:1016C00060E08BE00E946D0280918E0581FD04C078
:1016D00061E08BE00E943F028BE080937C05E9EBA8
:1016E000F2E0E491E0937D05E5EAF2E0E491F0E0D8
:1016F000EE0FFF1FEA57FD4F8591949190937F0560
:1017000080937E0510926705109266058FEB91E03D
:10171000909365058093640587E28093680580E176
:1017200080936D0582E080936E0510926F058DE0C9
:1017300080935F0586E08093600584E690E0909357
:1017400063058093620560E08DE00E946D0260E0B9
:10175000809160050E946D0260E080915F050E94AB
:101760003F0260E0809160050E943F021092F20407
:101770001092F6041092F5041092F70485EB91E0B4
:101780009093F1048093F004ECE0F5E01082148271
:1017900013821582369685E0E834F807B9F784E0BD
:1017A00091E0909353058093520580E091E09093EF
:1017B00055058093540584E0809356058093570522
:1017C00088E091E090935105809350058AE090E085
:1017D000909359058093580584EF91E090935B05B1
:1017E00080935A0510925E0510925D0510924C058B
:1017F00010924D0510924E0510924F0510925C0507
:101800001092EB041092EA041092ED041092EC0492
:101810001092EF041092EE046EE772E08AEE94E00C
:101820000E94C20882E88093DB0484E88093DC0491
:1018300088E88093DD048FE98093DE0492E9909339
:10184000DF0494E99093E00498E99093E104809395
:10185000E20482EA8093E30484EA8093E40488EA61
:101860008093E5048FEA8093E60482EB8093E7049B
:1018700084EB8093E80488EB8093E90486E090E0B1
:101880009093E6038093E5030895CF93DF93CDB75C
:10189000DEB7C858D1090FB6F894DEBF0FBECDBF72
:1018A000789484B5826084BD84B5816084BD85B53B
:1018B000826085BD85B5816085BD80916E00816047
:1018C00080936E00109281008091810082608093ED
:1018D00081008091810081608093810080918000EF
:1018E0008160809380008091B10084608093B1001A
:1018F0008091B00081608093B00080917A00846014
:1019000080937A0080917A00826080937A0080913F
:101910007A00816080937A0080917A008068809359
:101920007A001092C10060E08BE00E946D0261E0DD
:101930008CE00E946D0210922903109228031092ED
:10194000B5031092D7030E949E0585E794E090931B
:1019500027038093260386E794E0909325038093E2
:10196000240310928B0510928A051092890510921B
:10197000880510928705109286058DE991E0909375
:101980008D0580938C0590917C05963108F047C0B9
:101990002DEB30E030938705209386052BE931E06D
:1019A00030938905209388052CE231E030938B0534
:1019B00020938A052091680084E0983048F031E057
:1019C0009E3008F430E081E001C0880F3A95EAF7D4
:1019D000822B809368002DE630E0983050F02BE6A3
:1019E00030E09E3030F02CE630E0963110F030E000
:1019F00020E03093840520938305292F30E0983030
:101A000008F05DC081E001C0880F9A95EAF78093E5
:101A1000850580918C0590918D050197F1F7809156
:101A20008A0590918B05892B49F1E0912C03F09167
:101A30002D0325E0E037F20709F1309739F0A3894B
:101A4000B4899C918589809589238C9380918E059A
:101A50008E7F80938E0510922B0310922A0380E7CD
:101A600095E090932D0380932C03E0918305F091F2
:101A70008405808190918505892B808369E072E0DF
:101A800080E795E00E94E9070DE313E04DE4C42EE2
:101A900043E0D42EFF24F39480E795E00E944005B4
:101AA000892BD1F0C016D106B9F0F0927C0380E703
:101AB00095E00E945605F80181938F01EDCF9E308D
:101AC00040F42850310981E001C0880F2A95EAF7D7
:101AD0009ECF2E503109F7CF10924D030E94020481
:101AE00060933503709336038093370390933803E4
:101AF0008AE08093610519821A821B821C8240E071
:101B000064E0CE0101960E941D0388E080936F057A
:101B100060E084E695E00E9449078091690588604D
:101B20008093690532E0F32EF0926C0562E370E079
:101B300080E090E00E94CF0360916F0584E695E01D
:101B40000E94490768EE73E080E090E00E94CF03B6
:101B500060E384E695E00E946C070BE416E4C8019C
:101B60000197F1F760E384E695E00E946C07C801F5
:101B70000197F1F760E384E695E00E946C0783E546
:101B800092E00197F1F760E284E695E00E946C072D
:101B90008091690580620E949C0784E080936A05B9
:101BA0008CE00E949C070E94D207F0926B0586E0B1
:101BB0000E949C0782E00E949C078BE39FE10197B3
:101BC000F1F760E080E00E94A2076AE172E084E63B
:101BD00095E00E94E90761E080E00E94A2076DE3C2
:101BE00073E084E695E00E94E90768EB7BE080E023
:101BF00090E00E94CF030E94D2070E94DA0769E2B8
:101C000072E084E695E00E94E90761E083E00E94CB
:101C1000A2071A8219821C821B821E821D826AE31D
:101C200072E0CE0101960E94C20810E0812F90E080
:101C30002D813E8182179307C8F4E981FA8130979C
:101C400091F410922E03EEE2F3E041E0608184E62D
:101C500095E00E94850762E370E080E090E00E94DA
:101C6000CF031F5FE3CFE80FF91FEFCF68EE73E0FC
:101C700080E090E00E94CF03CE0101960E94E3082D
:101C80000E94D2070E94DA0764E472E084E695E0DD
:101C90000E94E90761E080E00E94A20710923403ED
:101CA000109233038CE291E09093320380933103DE
:101CB00080E480937C0080917A00806480937A0035
:101CC00080917A0086FDFCCF609178007091790058
:101CD000072E000C880B990B611571058105910584
:101CE00011F00E946C150E941D152FEF30E040E0AE
:101CF00050E00E94751570937B0360937A038E0108
:101D00000E5D1F4F0E9402044B015C01809239035B
:101D100090923A03A0923B03B0923C03809135032A
:101D200090913603A0913703B0913803A501940137
:101D3000281B390B4A0B5B0BDA01C901883E934023
:101D4000A105B10508F446C0209133033091340356
:101D50002F5F3F4F3093340320933303809131033F
:101D600090913203821B930B97FF17C00E94D207FA
:101D700060E080E00E94A20760E572E084E695E002
:101D80000E94E90761E080E00E94A20766E572E038
:101D900084E695E00E94E907FFCF6CE370E00E94C3
:101DA00023167B017093300360932F0322E040E001
:101DB000BC018AE00E94500320E040EEB7018AE0B7
:101DC0000E9450038092350390923603A09237030D
:101DD000B09238030E9402042AEF30E040E050E065
:101DE0000E94DE1520FD32C00E94DA0781E0809358
:101DF0005C050E940204C0904C05D0904D05E09017
:101E00004E05F0904F05AB01BC014C195D096E0900
:101E10007F098091580590915905B0E0A0E08417A2
:101E20009507A607B70708F0C5C3F12C80915605A2
:101E3000F816A8F4E0915205F0915305EF0DF11D4D
:101E400062E080810E946D02F394F0CF80916A0578
:101E50008D7F80936A0588600E949C07C7CF712C94
:101E600080915705781608F064C0C72CD12CE091FA
:101E70005405F0915505EC0DFD1D61E080810E9437
:101E80006D02E0915405F0915505EC0DFD1D60E0EB
:101E900080810E943F0281E090E0A0E0B0E0072C4A
:101EA00004C0880F991FAA1FBB1F0A94D2F74C01C8
:101EB0005C01A094B094612C80915605681610F5D1
:101EC000E62CF12CE0915205F0915305EE0DFF1D2B
:101ED00080810E941602A7014C5F5F4FFA01EE0F4E
:101EE000FF1FE051FB4F892B41F4808191818829AC
:101EF0009929918380836394DFCF808191818A21A6
:101F00009B21F7CFE0915405F0915505EC0DFD1D97
:101F100061E080810E943F028091540590915505B7
:101F2000C80ED91E60E0F60180810E946D02739494
:101F300097CF80EFA82E84E0B82E8CE295E0750153
:101F40002FEF3FEFF701478D50A1452B21F4148E61
:101F5000368F258F11A2F6E0EF0EF11C8E159F052E
:101F600089F7912CB6E07B2E80915605981608F0E3
:101F700052C0812CC92CD12CCC0CDD1C96012850D0
:101F80003B4F690120915705821608F042C0F601C7
:101F900060817181082C02C0769567950A94E2F7FA
:101FA000929E90011124280D311DE0EFF4E080E0B5
:101FB000458D568D2417350709F4D1C48F5F3696A9
:101FC0008A30B1F760FF23C0E0EFF4E090E080E0FA
:101FD000448D411117C0E0915005F0915105E20F79
:101FE000F31F4081789EF001799EF00D1124E0519D
:101FF000FB4F448F368F258F10A2178E61E00E9411
:102000000E0405C0019636968A30910509F783942F
:10201000B9CF9394A9CFD12CF50181A18111D82EEC
:10202000F6E0AF0EB11CEA14FB04B1F70E94020403
:1020300060934C0570934D0580934E0590934F052A
:10204000DD2009F4B7C280911105882309F4B2C2DA
:1020500080910F0590911005019709F0ABC2F090A7
:102060000C05FF2009F4A8C2F3E26F2EF6103BC462
:10207000E4961FAE1EAEE497E6961FAE1EAEE69740
:10208000E8961FAE1EAEE8976AEE74E0CE018E5859
:102090009F4F0E94CC08E8968EAD9FADE897892BA4
:1020A00009F4D6C363E672E0E4968EAD9FADE49783
:1020B0000E9428181C01892B09F0CAC380917C0357
:1020C000882309F4C5C3BE016F5F7F4F81E2FB0126
:1020D00011928A95E9F720917A0330917B03EA9671
:1020E0003FAF2EAFEA9720E230E0EA964EAD5FAD0B
:1020F000EA978FE691E00E9460074DB75EB7CC5734
:10210000DF4F59834883C458D0408DB79EB7C097DE
:102110000FB6F8949EBF0FBE8DBFEDB7FEB73196D8
:10212000CE57DF4FF983E883C258D0407E01F2E6F4
:10213000EF0EF11C80E1F701682E11926A94E9F725
:102140006E0122E5C20ED11CF60111928A95E9F7C3
:1021500020E130E0EA964EAD5FADEA97B7018DE33E
:1021600093E00E94600720E130E0EA964EAD5FAD5B
:10217000EA97B6018FE291E00E9460071092E603B1
:102180001092E50380E390E09093DA048093D90401
:102190008AE08093E40340E1B70187EE93E00E9478
:1021A0008D0180E190E0DD24D39450E1C52EBE0185
:1021B0006A5D7F4FEBE1BE2E582F9C012D513C4FA5
:1021C0007901DE0192969D01F70141917F01F901AC
:1021D00041939F016E177F07B9F74AA15C111FC099
:1021E000F0E1CF0EEBA1F0E0E859FE4FE491ED25D0
:1021F000EAA3ECA1F0E0E859FE4FE491EBA3EDA1D6
:10220000F0E0E859FE4FE491ECA3E42FF0E0E85948
:10221000FE4FE491EDA3D7FED7C1DD0CDB24AC016A
:1022200049515C4F4A017C0150E1E51AF108AD903B
:10223000A401481B590B4E0D5F1DFA014081A426D5
:10224000F401A1924F012A173B0789F70496803BBE
:10225000910509F0B1CFCE57DF4F28813981C2589F
:10226000D040205D3F4FC957DF4F39832883C7587F
:10227000D040CE57DF4F48815981C258D040EE96AA
:102280005FAF4EAFEE978FE391E0EC969FAF8EAFCE
:10229000EC974BE1F42EEE96EEADFFADEE97C957FD
:1022A000DF4F28813981C758D040E217F30709F47E
:1022B000D4C140E1EC966EAD7FADEC97CE018E5B64
:1022C0009F4F0E948D014091E403442309F4C5C14E
:1022D00030E1439FA001112449515C4FEC966EAD53
:1022E0007FADEC97CE01C2960E94A404EAA9F0E06B
:1022F000E859FF4FE491EAABEEA9F0E0E859FF4F4F
:10230000E491EEABEAADF0E0E859FF4FE491EAAFBB
:10231000EEADF0E0E859FF4FE491EEAF8FADEBADDD
:10232000F0E0E859FF4FE491EFAFEFA9F0E0E85992
:10233000FF4FE491EBAFEBA9F0E0E859FF4FE491D8
:10234000EFABE82FF0E0E859FF4FE491EBAB8CA93D
:10235000ECADF0E0E859FF4FE491ECABE82FF0E092
:10236000E859FF4FE491ECAF88AD2196EFAD21978E
:10237000F0E0E859FF4FE491E8AFE82FF0E0E859CA
:10238000FF4FE4912196EFAF21978DA9E9ADF0E0E1
:10239000E859FF4FE491EDABEDADF0E0E859FF4FA8
:1023A000E491E9AF2296EFAD2297F0E0E859FF4FB4
:1023B000E491EDAFE82FF0E0E859FF4FE491229669
:1023C000EFAF22978091E403815040E1849FC001E8
:1023D0001124FC01EC51FC4FC258DF4FF983E88314
:1023E000CE57D04024EE33E0C258DF4F48815981A8
:1023F000CE57D0402417350709F4E8C04D5F5F4F32
:10240000BE016E5C7F4FC8010E94A404D801CE01BA
:10241000C296C058DF4F99838883C058D04065E08A
:1024200070E09C9111968C91119712963C911297A5
:1024300013962C911397D92EDD0C97FDDF24B82E1F
:10244000BB0C87FDBF24C32ECC0C37FDCF24E22E5E
:10245000EE0C27FDEF244D2D440FD7FC4F254B2CC0
:10246000440CB7FE04C05B2D550F452E4F249C2C09
:10247000990CC7FC9F24AE2CAA0CE7FCAF24842E39
:10248000880C47FF04C0542F550F852E8F24542DE0
:10249000550F47FC5F25F92DFF0F97FCFF25EA2D0F
:1024A000EE0FA7FCEF25792E7824582E5526632EA3
:1024B0006F26CA57DF4F6882C658D040622E6E26FC
:1024C000482554259F26AE26E32FED25EB25E4274E
:1024D000E525E925E625F0E0E859FF4F3491C0589D
:1024E000DF4FE881F981C058D0403083E22FEB25DF
:1024F000EC25E725E527CA57DF4F2881C658D0408D
:10250000E227EA25F0E0E859FF4FB490FB01EF70B5
:10251000FF2722E330E02C0F3D1FE20FF31FB082B4
:102520009C259E254927542695246924E62DF0E014
:10253000E859FF4F6490FB013596EF70FF2722E3C7
:1025400030E02C0F3D1FE20FF31F6082E82FED25D6
:10255000EE25E7255E27CA57DF4FE881C658D040F1
:10256000E527AE26EA2DF0E0E859FF4FA490FB01E5
:102570003A96EF70FF27E20FF31FA0821496C0581F
:10258000DF4F88819981C058D0400496C058DF4FF2
:1025900099838883C058D0406C5F7F4F6531710547
:1025A00009F03FCFC258DF4FE881F981CE57D040C4
:1025B000709712CF10925C0580E090E0892B09F4AF
:1025C000A1CB0E9400009ECBDD0C29CE47EE53E04C
:1025D000BE016E5C7F4FEE968EAD9FADEE970E9472
:1025E000A404EE96EEADFFADEE97DE01AE5ABF4FFE
:1025F0006F0120E1C20ED11CCD0120813C91232727
:102600002083218111963C911197232721832281D8
:1026100012963C91129723272283238113963C9193
:1026200013972327238334961496CE16DF0629F7B3
:1026300040E1BE016E5B7F4F0E948D01EE96DFAEE2
:10264000CEAEEE97EC964EAD5FADEC97405F5F4F30
:10265000EC965FAF4EAFEC971ECE8CE2CE57DF4FBD
:10266000E881F981C258D040ADE4B3E001900D9209
:102670008A95E1F785E0EAE2F1E0DE01D296019089
:102680000D928A95E1F785E0F80111928A95E9F7B4
:1026900025E030E0EA964EAD5FADEA97B801CE0195
:1026A000C2960E9460071FA2B8018DE493E00E94C9
:1026B0003818892B09F4C1C0CC57DF4F28813981E4
:1026C000C458D0400FB6F8943EBF0FBE2DBF0E9435
:1026D000D20760E080E00E94A2076FE672E084E625
:1026E00095E00E94E9071BAA1AAA1DAA1CAA1FAA04
:1026F0001EAABE016F5F7F4FCE01C2960E94C20824
:1027000030E1E32EF12C1BA21AA21DA21CA21FA2D3
:102710001EA26DE772E0C8010E94C2084EA95FA91F
:102720006AA97BA9C8010E945908811103C0C80188
:102730000E948508B801CE01C2960E94CC08C8014B
:102740000E94E30851E0E51AF108E9F61BA21AA27B
:102750001DA21CA21FA21EA2BE016E5C7F4FC8015B
:102760000E94CC0841E050E06DE772E0C8010E9491
:102770005908811103C0C8010E948508B801CE0123
:10278000C2960E94CC08C8010E94E30851018EA99C
:102790009FA92816390608F07AC061E080E00E94FF
:1027A000A207610180E1C80ED11CC214D30428F035
:1027B0009C2D8D2D6101A92EB82E1BA21AA21DA23F
:1027C0001CA21FA21EA26EE772E0C8010E94C208EE
:1027D000EEA8FFA8CE14DF04D8F4AE14BF0408F4AA
:1027E0007501EAA9FBA9EE0DFF1DB08010826AA950
:1027F0007BA96C0D7D1DC8016115710509F444C0EC
:102800000E94B8088AA99BA9E80EF91EF701B082B8
:102810004EA15FA16AA17BA184E695E00E947704A6
:10282000C8010E94E3086AEF70E080E090E00E9437
:10283000CF03FFEF2F1A3F0AA9CFCC57DF4F4881B4
:102840005981C458D0400FB6F8945EBF0FBE4DBF3B
:102850000E94F807CE018E589F4F0E94E308109205
:102860007E0310927D036EE772E08AEE94E00E9490
:10287000B80864E472E084E695E00E94E90761E04C
:1028800080E00E94A20798CE0E948508BBCFCE01AF
:10289000C2960E94E30889E7C82E83E0D82E93EC05
:1028A000E92EF12CBB24B39428E6A22E0DE413E00C
:1028B000C7010197F1F7F80161918F01B092B4035C
:1028C000A092D6031092B5031092D70388ED93E03F
:1028D0000E941A070E94DD05C7010197F1F7C01693
:1028E000D10631F7E3CFFAE2FF1639F080917D038C
:1028F00090917E03803191056CF010927E031092CE
:102900007D036EE772E08AEE94E00E94B8080E94B0
:10291000D207AFCF019690937E0380937D031A82F6
:1029200019821C821B821E821D82FAA21BA2B80180
:10293000CE0101960E94B8084D815E8169817A813D
:102940008AEE94E00E945908CE0101960E94E308A5
:1029500041E06F2D84E695E00E9485072DCE6170E1
:102960004ECB8AEE94E00E94E3088BEC91E09093CA
:1029700071058093700580912C0390912D038057F1
:10298000954071F4E0918305F091840590818091E8
:10299000850580958923808310922D0310922C0346
:1029A00008958F929F92AF92BF92CF92DF92EF9253
:1029B000FF92CF93DF93EC01688179818A819B81BB
:1029C000611571058105910521F464E279ED8BE5CE
:1029D00097E02DE133EF41E050E00E947515490189
:1029E0005A019B01AC01A7EAB1E40E9494156B0166
:1029F0007C01ACEEB4EFA50194010E94A215C60EB5
:102A0000D71EE81EF91EF7FE06C081E0C81AD108DD
:102A1000E10880E8F80AC882D982EA82FB82C7010D
:102A2000B6019F77DF91CF91FF90EF90DF90CF902D
:102A3000BF90AF909F908F9008958F929F92AF928A
:102A4000BF92CF92DF92EF92FF9260911801709146
:102A5000190180911A0190911B0161157105810581
:102A6000910521F464E279ED8BE597E02DE133EFF8
:102A700041E050E00E94751549015A019B01AC01EB
:102A8000A7EAB1E40E9494156B017C01ACEEB4EFAF
:102A9000A50194010E94A215C60ED71EE81EF91EBC
:102AA000F7FE06C081E0C81AD108E10880E8F80AFC
:102AB000C0921801D0921901E0921A01F0921B0104
:102AC000C701B6019F77FF90EF90DF90CF90BF9046
:102AD000AF909F908F9008956093180170931901A3
:102AE00080931A0190931B010895052E97FB1EF405
:102AF00000940E948C1557FD07D00E94DE1507FC3C
:102B000003D04EF40C948C1550954095309521953A
:102B10003F4F4F4F5F4F0895909580957095619509
:102B20007F4F8F4F9F4F08950E940016A59F900DD5
:102B3000B49F900DA49F800D911D11240895B7FF9F
:102B40000C9494150E949415821B930B08952F9258
:102B50003F924F925F926F927F928F929F92AF922D
:102B6000BF92CF92DF92EF92FF920F931F93CF937A
:102B7000DF93CDB7DEB7CA1BDB0B0FB6F894DEBF11
:102B80000FBECDBF09942A88398848885F846E8437
:102B90007D848C849B84AA84B984C884DF80EE8081
:102BA000FD800C811B81AA81B981CE0FD11D0FB68A
:102BB000F894DEBF0FBECDBFED010895A1E21A2E3D
:102BC000AA1BBB1BFD010DC0AA1FBB1FEE1FFF1FD1
:102BD000A217B307E407F50720F0A21BB30BE40B21
:102BE000F50B661F771F881F991F1A9469F7609568
:102BF0007095809590959B01AC01BD01CF01089522
:102C0000A29FB001B39FC001A39F700D811D11242D
:102C1000911DB29F700D811D1124911D0895AA1B55
:102C2000BB1B51E107C0AA1FBB1FA617B70710F0B7
:102C3000A61BB70B881F991F5A95A9F780959095E9
:102C4000BC01CD01089597FB072E16F4009407D020
:102C500077FD09D00E940F1607FC05D03EF4909531
:102C600081959F4F0895709561957F4F0895EE0F60
:102C7000FF1F0590F491E02D09940F931F93CF93BC
:102C8000DF938230910510F482E090E0E0919105AD
:102C9000F091920530E020E0B0E0A0E0309799F4A8
:102CA0002115310509F44AC0281B390B24303105A0
:102CB000D8F58A819B816115710589F1FB019383A8
:102CC0008283FE0111C04081518102811381481726
:102CD0005907E0F04817590799F4109761F01296D8
:102CE0000C93129713961C933296CF01DF91CF91DC
:102CF0001F910F9108950093910510939205F4CFC1
:102D00002115310551F04217530738F0A901DB01B5
:102D10009A01BD01DF01F801C1CFEF01F9CF909316
:102D2000920580939105CDCFFE01E20FF31F8193B1
:102D300091932250310939832883D7CF20918F0571
:102D400030919005232B41F420911E0130911F01F9
:102D50003093900520938F0520911C0130911D0127
:102D60002115310541F42DB73EB740912001509116
:102D70002101241B350BE0918F05F0919005E2179E
:102D8000F307A0F42E1B3F0B2817390778F0AC018E
:102D90004E5F5F4F2417350748F04E0F5F1F50936B
:102DA000900540938F05819391939FCFF0E0E0E0F1
:102DB0009CCFCF93DF930097E9F0FC013297138209
:102DC0001282A0919105B0919205ED0130E020E0D2
:102DD0001097A1F420813181820F931F20918F05DC
:102DE000309190052817390709F061C0F0939005DC
:102DF000E0938F05DF91CF910895EA01CE17DF07A9
:102E0000E8F54A815B819E0141155105B1F7E90161
:102E1000FB83EA8349915991C40FD51FEC17FD0735
:102E200061F4808191810296840F951FE901998355
:102E30008883828193819B838A83F0E0E0E012960D
:102E40008D919C9113970097B9F52D913C91119715
:102E5000CD010296820F931F20918F05309190052E
:102E60002817390739F6309751F5109292051092CC
:102E70009105B0939005A0938F05BCCFD383C283F7
:102E800040815181840F951FC817D90761F44E5FA7
:102E90005F4F88819981480F591F518340838A81F0
:102EA0009B81938382832115310509F0B0CFF09384
:102EB0009205E09391059ECFFD01DC01C0CF138206
:102EC0001282D7CFB0E0A0E0E8E6F7E10C94A915B4
:102ED0008C01009751F4CB010E943D168C01C80172
:102EE000CDB7DEB7E0E10C94C515FC01E60FF71F86
:102EF0009C0122503109E217F30708F49DC0D90163
:102F0000CD91DC911197C617D70798F0C530D10540
:102F100030F3CE0104978617970708F3C61BD70B2B
:102F20002297C193D1936D937C93CF010E94D916C0
:102F3000D6CF5B01AC1ABD0A4C018C0E9D1EA09130
:102F40009105B0919205512C412CF12CE12C109758
:102F500031F580918F05909190058815990509F0BC
:102F60005CC04616570608F058C080911C0190912D
:102F70001D01009741F48DB79EB7409120015091FB
:102F80002101841B950BE817F90708F055C0F09351
:102F90009005E0938F05F90171836083A0CF8D9137
:102FA0009C91119712966C90129713967C901397A0
:102FB000A815B90559F56C0142E0C40ED11CCA141C
:102FC000DB0420F1AC014A195B09DA01129615976E
:102FD00080F06282738251834083D9016D937C9328
:102FE000E114F10471F0D7011396FC93EE9312975C
:102FF00076CF22968C0F9D1FF90191838083F30178
:10300000EFCFF0939205E093910569CF48165906EA
:1030100008F42C017D01D3019ACFCB010E943D160B
:103020007C01009749F0AE01B8010E941F18C80149
:103030000E94D916870153CF10E000E050CFFB016A
:10304000DC0102C001900D9241505040D8F7089524
:10305000FB01DC018D91019080190110D9F3990BCE
:103060000895FB01DC0101900D920020E1F7089525
:10307000FB0151915523A9F0BF01DC014D9145178A
:103080004111E1F759F4CD010190002049F04D9133
:1030900040154111C9F3FB014111EFCF81E090E0F0
:1030A0000197089511E0C2E6D1E004C0FE010E943C
:0E30B00037162196C336D107C9F7F894FFCF23
:1030BE00050403020A09080731323341343536421A
:1030CE00373839432A3023440100000000009305AD
:1030DE0080000000400014005400BCA1BBAB934B19
:1030EE0032596C606237587E322D28532E3528BAED
:1030FE00008708F71C57AC98B153EDBFC8660FD9BF
:10310E003076FA94612FD4FECB5FE64FD291CD4844
:10311E0052C0318A4AA937AD0CC8EFCD44AA32AE9F
:10312E0081868CC891879D9AC88E84898FC8818626
:10313E00C89C808DC881DA8BC88A9D9BC6C6C63F47
:10314E00065B4F666D7D077F6F777C395E79710008
:10315E000000001A07ED065D07E304E606D306C479
:10316E0006000000006A046E04720400000000E312
:10317E000777045D075C0700000000E40477045D38
:10318E0007E30440055605CB0457726F6E67206443
:10319E00656372797074696F6E006F72206E6F2046
:1031AE006B6579206368697021004C6573732074B8
:1031BE00696D65206E6F77210046386733615F3920
:1031CE005637473224642330680052656164206BA1
:1031DE00657920636869703A00476F6F644C756358
:1031EE006B4465667573696E670054484953204297
:1031FE004F4D4200456E74657220436F64653A0010
:10320E00424F4F4D210047616D65204F766572200C
:10321E003A29003339414234314430373243004287
:10322E006F6D622064656675736564210020000011
:00000001FF
